{
  "address": "0x6DB6DE1D71a445aa5a83CA78d3D5D1E6Fb306F3E",
  "abi": [
    {
      "anonymous": false,
      "inputs": [
        {
          "indexed": false,
          "internalType": "uint8",
          "name": "version",
          "type": "uint8"
        }
      ],
      "name": "Initialized",
      "type": "event"
    },
    {
      "inputs": [],
      "name": "greet",
      "outputs": [
        {
          "internalType": "string",
          "name": "res",
          "type": "string"
        }
      ],
      "stateMutability": "view",
      "type": "function"
    },
    {
      "inputs": [],
      "name": "greet2",
      "outputs": [
        {
          "internalType": "string",
          "name": "res",
          "type": "string"
        }
      ],
      "stateMutability": "view",
      "type": "function"
    },
    {
      "inputs": [
        {
          "internalType": "string",
          "name": "_greeting",
          "type": "string"
        }
      ],
      "name": "initialize",
      "outputs": [],
      "stateMutability": "nonpayable",
      "type": "function"
    },
    {
      "inputs": [
        {
          "internalType": "string",
          "name": "_greeting",
          "type": "string"
        }
      ],
      "name": "setGreeting",
      "outputs": [],
      "stateMutability": "nonpayable",
      "type": "function"
    }
  ],
  "transactionHash": "0x98913fc0d52110458e63166f93cf6eb6dc7f8fae1b23af756078f01c26f632b6",
  "args": [],
  "numDeployments": 7,
  "solcInputHash": "7a7f9b95c6eddaee27b46646d88717b0",
  "bytecode": "0x608060405234801561001057600080fd5b506107a5806100206000396000f3fe608060405234801561001057600080fd5b506004361061004c5760003560e01c806380cc6ac114610051578063a41368621461006f578063cfae32171461008b578063f62d1888146100a9575b600080fd5b6100596100c5565b604051610066919061045b565b60405180910390f35b610089600480360381019061008491906105c6565b610102565b005b61009361011c565b6040516100a0919061045b565b60405180910390f35b6100c360048036038101906100be91906105c6565b6101ae565b005b60606040518060400160405280600981526020017f48656c6c6f204b696d0000000000000000000000000000000000000000000000815250905090565b806001908051906020019061011892919061031f565b5050565b60606001805461012b9061063e565b80601f01602080910402602001604051908101604052809291908181526020018280546101579061063e565b80156101a45780601f10610179576101008083540402835291602001916101a4565b820191906000526020600020905b81548152906001019060200180831161018757829003601f168201915b5050505050905090565b60008060019054906101000a900460ff161590508080156101df5750600160008054906101000a900460ff1660ff16105b8061020c57506101ee306102fc565b15801561020b5750600160008054906101000a900460ff1660ff16145b5b61024b576040517f08c379a0000000000000000000000000000000000000000000000000000000008152600401610242906106e2565b60405180910390fd5b60016000806101000a81548160ff021916908360ff1602179055508015610288576001600060016101000a81548160ff0219169083151502179055505b816001908051906020019061029e92919061031f565b5080156102f85760008060016101000a81548160ff0219169083151502179055507f7f26b83ff96e1f2b6a682f133852f6798a09c465da95921460cefb384740249860016040516102ef9190610754565b60405180910390a15b5050565b6000808273ffffffffffffffffffffffffffffffffffffffff163b119050919050565b82805461032b9061063e565b90600052602060002090601f01602090048101928261034d5760008555610394565b82601f1061036657805160ff1916838001178555610394565b82800160010185558215610394579182015b82811115610393578251825591602001919060010190610378565b5b5090506103a191906103a5565b5090565b5b808211156103be5760008160009055506001016103a6565b5090565b600081519050919050565b600082825260208201905092915050565b60005b838110156103fc5780820151818401526020810190506103e1565b8381111561040b576000848401525b50505050565b6000601f19601f8301169050919050565b600061042d826103c2565b61043781856103cd565b93506104478185602086016103de565b61045081610411565b840191505092915050565b600060208201905081810360008301526104758184610422565b905092915050565b6000604051905090565b600080fd5b600080fd5b600080fd5b600080fd5b7f4e487b7100000000000000000000000000000000000000000000000000000000600052604160045260246000fd5b6104d382610411565b810181811067ffffffffffffffff821117156104f2576104f161049b565b5b80604052505050565b600061050561047d565b905061051182826104ca565b919050565b600067ffffffffffffffff8211156105315761053061049b565b5b61053a82610411565b9050602081019050919050565b82818337600083830152505050565b600061056961056484610516565b6104fb565b90508281526020810184848401111561058557610584610496565b5b610590848285610547565b509392505050565b600082601f8301126105ad576105ac610491565b5b81356105bd848260208601610556565b91505092915050565b6000602082840312156105dc576105db610487565b5b600082013567ffffffffffffffff8111156105fa576105f961048c565b5b61060684828501610598565b91505092915050565b7f4e487b7100000000000000000000000000000000000000000000000000000000600052602260045260246000fd5b6000600282049050600182168061065657607f821691505b6020821081141561066a5761066961060f565b5b50919050565b7f496e697469616c697a61626c653a20636f6e747261637420697320616c72656160008201527f647920696e697469616c697a6564000000000000000000000000000000000000602082015250565b60006106cc602e836103cd565b91506106d782610670565b604082019050919050565b600060208201905081810360008301526106fb816106bf565b9050919050565b6000819050919050565b600060ff82169050919050565b6000819050919050565b600061073e61073961073484610702565b610719565b61070c565b9050919050565b61074e81610723565b82525050565b60006020820190506107696000830184610745565b9291505056fea264697066735822122076d678e3315731a42b898e55e2196e0f9afa542cf03e625216c35275e4178b8064736f6c634300080a0033",
  "devdoc": {
    "kind": "dev",
    "methods": {},
    "version": 1
  },
  "userdoc": {
    "kind": "user",
    "methods": {},
    "version": 1
  },
  "storageLayout": {
    "storage": [
      {
        "astId": 6,
        "contract": "contracts/Greeting.sol:Greeting",
        "label": "_initialized",
        "offset": 0,
        "slot": "0",
        "type": "t_uint8"
      },
      {
        "astId": 9,
        "contract": "contracts/Greeting.sol:Greeting",
        "label": "_initializing",
        "offset": 1,
        "slot": "0",
        "type": "t_bool"
      },
      {
        "astId": 459,
        "contract": "contracts/Greeting.sol:Greeting",
        "label": "greeting",
        "offset": 0,
        "slot": "1",
        "type": "t_string_storage"
      }
    ],
    "types": {
      "t_bool": {
        "encoding": "inplace",
        "label": "bool",
        "numberOfBytes": "1"
      },
      "t_string_storage": {
        "encoding": "bytes",
        "label": "string",
        "numberOfBytes": "32"
      },
      "t_uint8": {
        "encoding": "inplace",
        "label": "uint8",
        "numberOfBytes": "1"
      }
    }
  }
}